S0160000437573746F6D2050726F6A6563742E737265639C
S113000044C1000060C100005EC100005CC100008A
S11300105AC1000058C1000056C1000054C100007C
S113002052C1000050C100004EC100004CC100008C
S11300304AC10000A3C3000046C1000044C100003F
S113004042C1000040C100003EC100003CC10000AC
S11300503AC1000038C1000036C1000034C10000BC
S113006032C1000030C100002EC100002CC10000CC
S11300702AC1000028C1000026C1000024C10000DC
S113008022C1000020C100001EC100002A06330660
S113009044064D065C06640673067B0649095C0942
S11300A01D09720938091A093D0900000000000001
S11300B0005F00000007000700147F147F14242A47
S11300C07F2A12231308646236495522500005031F
S11300D00000001C2241000041221C0014083E08BC
S11300E01408083E080800503000000808080808F2
S11300F0006060000020100804023E5149453E00A3
S1130100427F400042615149462141454B31181418
S1130110127F1027454545393C4A49493001710948
S113012005033649494936064949291E0036360031
S1130130000056360000081422410014141414144C
S113014000412214080201510906324979413E7ED8
S11301501111117E7F494949363E414141227F4177
S113016041221C7F494949417F090909013E41490E
S1130170497A7F0808087F00417F41002040413FC1
S1130180017F081422417F404040407F020C027FDF
S11301907F0408107F3E4141413E7F090909063E24
S11301A04151215E7F0919294646494949310101D6
S11301B07F01013F4040403F1F2040201F3F403807
S11301C0403F6314081463070870080761514945E8
S11301D043007F41410002040810200041417F0098
S11301E00402010204404040404000010204002097
S11301F0545454787F484444383844444420384460
S113020044487F3854545418087E0901020C525251
S1130210523E7F0804047800447D40002040443D61
S1130220007F1028440000417F40007C04180478BB
S11302307C0804047838444444387C1414140808B2
S11302401414187C7C080404084854545420043FB3
S11302504440203C4040207C1C2040201C3C40303A
S1130260403C44281028440C5050503C4464544CA6
S113027044000836410000007F00000041360800B9
S11302801008081008000000000011241FBECFEF62
S1130290D0E4DEBFCDBF11E0A0E0B1E0EEEAF8E1CA
S11302A000E00BBF02C007900D92A836B107D9F742
S11302B026E0A8E6B1E001C01D92A137B207E1F73C
S11302C0B1D30C94550C9CCEEAE7F0E08081806CAD
S11302D080830895811106C0ECE7F0E080818E7F71
S11302E0808307C0813029F4ECE7F0E080818160ED
S11302F08083EAE7F0E080818064808380917800E5
S1130300909179000895009721F06CF103975CF0C7
S11303102AC08CE380935E05109244041092680115
S113032081E090E0089580915E05811106C081E02E
S11303308093440482E090E0089590918D04992381
S1130340A9F090916801983040F0815080935E0547
S11303501092680182E090E008959F5F9093680195
S113036082E090E0089580E090E0089582E090E0DB
S113037008958130910541F08230910569F0892B0F
S113038041F080E090E008951092620510926105BA
S113039003C081E090E0089580E09CDF9093AF0576
S11303A08093AE0581E096DF90936A03809369039E
S11303B080B1809584708093650580B18095887044
S11303C080935F05809161059091620501969093F9
S11303D062058093610582E090E008958F929F9278
S11303E0AF92BF92CF92DF92EF92FF92CF93DF93BF
S11303F0EC018230910509F4C0C034F4009709F48B
S113040085C0019741F062C08330910549F004979B
S113041009F42CC15BC0809165058111A7C076C029
S113042080914404882309F4A8C0C0908904D09022
S11304308A04E0908B04F0908C04C9EAD5E0C701EB
S1130440B60120E137E240E050E00E949A0B205DC3
S113045028830F2EF8EE8F2EF3E09F2EA12CB12CC3
S1130460F02DA50194010E949A0B205D2983C701F8
S1130470B601A50194010E949A0B0F2EF4E68F2E6B
S1130480912CA12CB12CF02DA50194010E949A0B62
S1130490205D2A83C701B601A50194010E949A0B2D
S11304A00F2EFAE08F2E912CA12CB12CF02DA5014A
S11304B094010E949A0B205D2B83C701B601A5010C
S11304C094010E949A0B605D6C83D0C0C230D10548
S11304D009F44CC03CF4209771F0C130D10509F007
S11304E0DEC014C0C330D10509F447C0C430D105FF
S11304F009F0D5C0BBC058D761E081E00E94E80A8A
S113050062E088E091E00E94BA0AC9C04DD761E078
S113051081E00E94E80A61E08EE091E00E94BA0A5C
S11305206FE08CE00E94E80A61E08BE191E00E94B8
S1130530BA0A6EE181E00E94E80A61E087E291E094
S11305400E94BA0A10925B0580E290E290936705DC
S1130550809366058CE0E4E4F1E0AFE4B5E001905B
S11305600D928A95E1F7C1E0D0E099C01DD781E0F2
S113057080935B05C2E0D0E092C090915E05E6E610
S1130580F5E08DEC989F812D1124869586958695AE
S113059020E3280F2083880F282F220F220F820F99
S11305A0981B905D9183C0908904D0908A04E09058
S11305B08B04F0908C04CFE4D5E0C701B60120E1B0
S11305C037E240E050E00E949A0B205D2F830F2E0B
S11305D0F8EE8F2EF3E09F2EA12CB12CF02DA50167
S11305E094010E949A0B205D2887C701B601A501DA
S11305F094010E949A0B0F2EF4E68F2E912CA12CBD
S1130600B12CF02DA50194010E949A0B205D29873D
S1130610C701B601A50194010E949A0B0F2EFAE0BE
S11306208F2E912CA12CB12CF02DA50194010E94A8
S11306309A0B205D2A87C701B601A50194010E9487
S11306409A0B605D6B87B0D661E080E2C1D742E06F
S113065062E086E695E0A0D76EE188E0B9D74CE089
S113066061E0CE0199D7C3E0D0E019C09DD661E026
S113067080E1AED761E081E591E07CD764E18AE076
S1130680A7D761E08BE591E075D76EE18CE1A0D747
S113069045E061E089EA95E07FD7C4E0D0E09DD7EA
S11306A0CE01DF91CF91FF90EF90DF90CF90BF907C
S11306B0AF909F908F9008958BE0809381008DE799
S11306C090E0909389008093880082E080936F008B
S11306D0109285001092840080910401909105018C
S11306E0A0910601B091070180936B0190936C0176
S11306F0A0936D01B0936E018FB780688FBF08958A
S1130700EF92FF920F931F93CF93DF93CDEAD3E041
S11307100F2EF1E0EF2EF4E0FF2EF02D8E014E812E
S11307205F81688579858A819B81AC81BD81481709
S113073059076A077B0758F0EA85FB858881998108
S11307400995998388831E821F8218861986F80169
S113075086819781A085B185C296A11DB11D86832E
S11307609783A087B1872C96CE15DF05B9F6DF9164
S1130770CF911F910F91FF90EF9008951F920F92C8
S11307800FB60F9211240BB60F922F933F934F93F2
S11307905F936F937F938F939F93AF93BF93EF93E5
S11307A0FF9380916B0190916C01A0916D01B091C8
S11307B06E010197A109B10980936B0190936C01BB
S11307C0A0936D01B0936E01892B8A2B8B2B89F436
S11307D097DF8091040190910501A0910601B091E9
S11307E0070180936B0190936C01A0936D01B0930A
S11307F06E01FF91EF91BF91AF919F918F917F9186
S11308006F915F914F913F912F910F900BBE0F907D
S11308100FBE0F901F90189560930401709305010B
S1130820809306019093070160936B0170936C01B0
S113083080936D0190936E0108956230710559F1B2
S11308403CF46115710559F061307105B1F00895FA
S11308506330710571F164307105C9F1089590E058
S1130860FC01EE0FFF1F8E0F9F1FFC01EF54FA4F88
S1130870108282E081831282089590E0FC01EE0FE1
S1130880FF1F8E0F9F1FFC01EF54FA4F108211823D
S113089082E08283089590E0FC01EE0FFF1F8E0F2B
S11308A09F1FFC01EF54FA4F82E080831182128271
S11308B0089590E0FC01EE0FFF1F8E0F9F1FFC01B7
S11308C0EF54FA4F82E0808381831282089590E08E
S11308D0FC01EE0FFF1F8E0F9F1FFC01EF54FA4F18
S11308E01082118212820895FF920F931F93CF9367
S11308F0DF938230910589F034F40097F1F1019788
S113090009F43EC040C08330910521F08430910544
S113091049F039C084E090E038C020915F0521118E
S113092008C033C020915F0521112FC082E090E000
S11309302CC0EDEAF3E081E094E0118210823C9651
S1130940E817F907D1F701EB15E0CFE8D4E0F12C73
S113095064E070E08F2D71DFF801808188838181EC
S1130960898382818A83F3940D5F1F4F2396F0E479
S1130970FF12EECF83E090E008C081E090E005C074
S113098082E090E002C080E090E0DF91CF911F917F
S11309900F91FF90089590E0FC01EE0FFF1F8E0F62
S11309A09F1FFC01EF54FA4F918180812281823094
S11309B039F4911113C02223E9F085E090E0089501
S11309C081111BC0923029F42223D1F085E090E0FC
S11309D00895911118C0223041F418C09230C9F41E
S11309E021111AC083E090E00895211118C084E019
S11309F090E0089582E090E0089585E090E0089505
S1130A0080E090E0089585E090E0089581E090E032
S1130A10089585E090E0089585E090E0089585E0EC
S1130A2090E0089511B88FEF82B984B915B887B9E9
S1130A3018B8EDEAF3E01182108284E690E0A0E0B9
S1130A40B0E082839383A483B583168217821086D1
S1130A50118689EB91E0938782871586148688EC4A
S1130A6090E0A0E0B0E086879787A08BB18B128AD4
S1130A70138A148A158A2DE039E0378B268B118E60
S1130A80108E44EF51E060E070E0428F538F648F2A
S1130A90758F168E178E10A211A22EEE31E033A39D
S1130AA022A315A214A244EC59E060E070E046A32E
S1130AB057A360A771A712A613A614A615A626EA23
S1130AC037E037A726A711AA10AA82AB93ABA4AB31
S1130AD0B5AB16AA17AA10AE11AE2DEA36E033AFA5
S1130AE022AF15AE14AE8093EB039093EC03A09366
S1130AF0ED03B093EE031092EF031092F003109203
S1130B00F1031092F20384E794E09093F40380934A
S1130B10F3031092F6031092F50388EE93E0A0E03D
S1130B20B0E08093F7039093F803A093F903B09394
S1130B30FA031092FB031092FC031092FD0310922F
S1130B40FE0383E891E0909300048093FF03BCDBF1
S1130B5061E070E080E090E05FDEAEDDEFD354D57D
S1130B6040E062E080E071D5FFCF9A9581309240F9
S1130B7038F47A9581E06130724018F480E0089589
S1130B8081E00895613023E0720778F0813043E01A
S1130B909407C0F59C01215031402F3F3140A8F10A
S1130BA08F3F910509F0E8F433C0813023E09207C8
S1130BB008F443C0611543E0740760F4613081E0D8
S1130BC0780748F507C09B01215031402F3F314041
S1130BD028F107C06F3F710521F118F188E090E01A
S1130BE008956F3F710509F0F8F49C0121503140DC
S1130BF02F3F3140E0F08F3F9105E1F0D8F088E0DD
S1130C0090E0089587E090E0089580E090E00895F2
S1130C1081E090E0089586E090E0089582E090E01D
S1130C20089585E090E0089588E090E0089584E0D8
S1130C3090E0089583E090E008958F3F910519F2C4
S1130C4010F2CFCF8830910508F063C0FC01EA5B55
S1130C50FF4F92C580915D05882309F45AC08150E5
S1130C6080935D05089580915D05882309F451C042
S1130C7090915C05973008F04CC0ECE5F5E09F5F7F
S1130C80908381508183089580915C05873008F0BA
S1130C9040C08F5F80935C05089580915C05873028
S1130CA0C0F590915D059730A0F5ECE5F5E08F5F18
S1130CB080839F5F9183089580915D05873048F517
S1130CC08F5F80935D05089580915D05873008F5F9
S1130CD090915C059923E9F0ECE5F5E08F5F818361
S1130CE091509083089580915C05882391F0815000
S1130CF080935C05089580915C05882351F0909160
S1130D005D05992331F0ECE5F5E081508083915045
S1130D1091830895CF9380916105909162057FD569
S1130D20C0E07AD5BC0163707078772334F46150E5
S1130D3071096C6F7F6F6F5F7F4F8C2F7EDDCF5F8C
S1130D40C03479F7CF910895ECE5F5E08181880FFF
S1130D50880F880F9081890F08950F931F93CF9365
S1130D600097A1F11CF0833091051CF082309105AD
S1130D7079F50FE814E0C0E0E7DF8C1731F0F801F3
S1130D802181428160818C2F52D4CF5F0D5F1F4F30
S1130D90C03491F780916005882331F0D5DF25E0D8
S1130DA045E065E044D40EC0CFDF282F30E0F901E0
S1130DB0EE0FFF1FE20FF31FE157FB4F218142812A
S1130DC0608135D47CD482E090E002C081E090E080
S1130DD0CF911F910F910895AF92BF92CF92DF925E
S1130DE0EF92FF920F931F93CF93DF93D82FC62ECA
S1130DF007E010E0081B110910161106A4F4B62E22
S1130E00BB0CBB0CBB0CB80EB394E0904604F09042
S1130E104704D12CAA24A394CB2DCD0D8C2FBBDD5C
S1130E208E159F0519F0D1110DC01EC0EC2FF0E0F6
S1130E30E859FA4FA082D3948D2D90E08017910742
S1130E405CF3F1CF1C2D110F110F110FCD2FC10F1A
S1130E50C150E0904604F0904704115001E08C2FFB
S1130E609ADD8E159F0541F007E010E00C19110979
S1130E701016110654F01BC0EC2FF0E0E859FA4F9D
S1130E800083C1501C13EBCFEFCFE0904604F090E9
S1130E904704C1E0CC0DCC0FCC0FCC0FCD0FD12C1F
S1130EA0BB24B3948C2F77DD8E159F0519F0C110E8
S1130EB00EC028C0EC2FF0E0E859FA4FB082D3946A
S1130EC0C85F8D2D90E08017910764F3F0CF0091F7
S1130ED0460410914704CFE1CC0DCC0FCC0FCC0FBE
S1130EE0CD0FD0E0FF24F3948C2F55DD80179107AC
S1130EF049F4EC2FF0E0E859FA4FF082DF5FC85074
S1130F00CD12F2CFDF91CF911F910F91FF90EF900F
S1130F10DF90CF90BF90AF900895CF93C0E08C2F17
S1130F203ADD049771F478D4BC0163707078772348
S1130F3034F4615071096C6F7F6F6F5F7F4F8C2F3A
S1130F407CDCCF5FC03459F7CF910895823091058E
S1130F50B9F02CF4009721F1019741F079C0833066
S1130F609105C9F0049709F476C072C010926A0121
S1130F701092690180915B05882391F0CBDE72C0E9
S1130F808091690190916A01089708F46BC081E02F
S1130F9080938D0460C080916B03811140C05BC05D
S1130FA01092600510928D0481E090E008958217FC
S1130FB0930758F04C91408311964C9111974183BB
S1130FC012964C911297428303C0108211821282AE
S1130FD00196139633968034910549F780916901FF
S1130FE090916A01019690936A018093690182E06D
S1130FF090E0089580818C93818111968C93119750
S1131000828112968C93129733961396E217F30704
S113101089F781E08093600583E090E008957DDFA7
S1131020E1EBF5E0AFE8B4E021E736E080818C93B2
S1131030818111968C931197828112968C931297C9
S113104033961396E217F30789F784E090E0089546
S113105080E090E00895E1EBF5E0AFE8B4E021E74B
S113106036E0C8CF8091690190916A012227332725
S1131070281B390B220F331F220F331F220F331F5C
S1131080285C3F4F0196880F991F880F991F880F7E
S1131090991FDC01AA0FBB1FA80FB91FAF50BB4F8C
S11310A0EFE8F4E080E090E082CF0F931F93CF93BA
S11310B08C01C0E08C2F6FDC049711F5ADD3BC011B
S11310C063707078772334F4615071096C6F7F6FAB
S11310D06F5F7F4F8C2FB1DB0EC09ED3BC0163705A
S11310E07078772334F4615071096C6F7F6F6F5F90
S11310F07F4F8C2FA2DB8C2F4EDC8017910769F376
S1131100CF5FC034B9F6CF911F910F910895EF923C
S1131110FF920F931F93CF93DF930F2EF8E6EF2EDA
S1131120F5E0FF2EF02D88EA95E0F70111928E1775
S11311309F07E1F7ECE5F5E0D181C0818D2F880FA1
S1131140880F880F8C0F27DC909347048093460404
S1131150FBDDE82FF0E0E859FA4F81E080836D2F42
S11311608C2F3ADED6E011C0F80181918F018823DB
S113117039F06C2F6695669566958C2F87702CDEFA
S1131180CF5FC03489F7D15019F08701C0E0ECCFAC
S1131190C0E0F70181917F01882381F164E070E070
S11311A08C2F4BDBD1DD90916405891314C08091A1
S11311B0890490918A04A0918B04B0918C040196C7
S11311C0A11DB11D8093890490938A04A0938B047C
S11311D0B0938C0413C08091890490918A04A091E7
S11311E08B04B0918C040A96A11DB11D80938904CF
S11311F090938A04A0938B04B0938C04CF5FC03483
S113120041F680914604909147044FDFDF91CF91DE
S11312101F910F91FF90EF9008950F931F93CF9319
S1131220DF93EC018730910508F05FC0FC01E25BBD
S1131230FF4FA2C2C6E0D0E05AC08091650581117B
S113124040C00091690310916A03C091AE05D0912A
S1131250AF05B801CE0189DC882371F1B801CE0154
S113126091DC80938E049927EDDCC5E0D0E03FC08B
S11312708091650581113BC01FC060916903709125
S11312806A038091AE059091AF056FDC8823A1F0CD
S11312902EC0ECE5F5E01082118210926B031092DF
S11312A0890410928A0410928B0410928C04109278
S11312B06405C1E0D0E01BC010926B03C2E0D0E033
S11312C016C080915B05882351F021DF81E0809373
S11312D06B033ADD80936405C3E0D0E008C0C3E04B
S11312E0D0E005C0C4E0D0E002C0C0E0D0E0CE0150
S11312F0DF91CF911F910F9108954098662311F0CB
S1131300429A15C0429813C0AC01022E02C05595F2
S113131047950A94E2F740FF02C0439A01C04398FC
S1131320449A44982150310978F7409A089527E067
S113133030E090E0E9CF60E0E0CF0895CF93DF9311
S1131340389A399A3A9A3B9A3C9A419A409A83EC51
S113135099E00197F1F700C0000041988BE594E40F
S11313600197F1F700C00000419A409881E2E3DF61
S113137083E1E1DF86E0DFDF82ECDDDF80E2DBDFDB
S113138089E0D9DF80E8D7DF88E4D5DFC8EFD1E092
S113139061E080E0B2DF2197D9F788E0CCDF8CE010
S11313A0CADFDF91CF91089580E8C5DF80E4C3DF11
S11313B01092670310926803EFE6F1E087E693E08A
S11313C01192E817F907E1F70895262F2695269537
S11313D0269590E034E5239F800D911D112444232C
S11313E079F0FC01E159FE4F677081E090E002C0A2
S11313F0880F991F6A95E2F79081892B808308955D
S1131400FC01E159FE4F677081E090E002C0880F53
S1131410991F6A95E2F780959081892380830895C6
S11314205F926F927F928F929F92AF92BF92CF9270
S1131430DF92EF92FF920F931F93CF93DF93562E79
S1131440262F30E04901880C991C880C991C820EC7
S1131450931E181419040CF059C08901000F111FB0
S1131460000F111F000F111F021B130B612CA82E5C
S1131470B12CC50180975C01AA0CBB1CAA0CBB1C37
S1131480A80EB91E0F2EF8E6CF2EF3E0DF2EF02DB6
S11314900F2EF7E6EF2EF3E0FF2EF02D2AC0FE010B
S11314A0249130E0872D652D39D102C035952795DB
S11314B08A95E2F720FF09C0F6016081670DF70104
S11314C0808141E0860D81DF08C0F6016081670DEF
S11314D0F701808140E0860D78DF7394872D90E0DA
S11314E080179107E4F26394862D90E0881599059E
S11314F06CF410161106BCF7862D652D0FD1E5018D
S1131500C80FD11DC655DF4F712CC9CF8091670319
S113151091E0980F852D880F880F850D890F8435EC
S113152018F4809367030EC010926703E8E6F3E0B3
S1131530808191E0980F852D880F880F880F851979
S1131540890F808380916803803320F010926703B1
S113155010926803DF91CF911F910F91FF90EF904C
S1131560DF90CF90BF90AF909F908F907F906F90BF
S11315705F9008951F93CF93DF93EC0188818823B4
S113158039F0162F2196612F4BDF89918111FBCF02
S1131590DF91CF911F910895FF920F931F93CF93E3
S11315A0DF93442379F0F62EEC014150042F10E030
S11315B00F5F1F4F080F191F6F2D899131DFC0175F
S11315C0D107D1F7DF91CF911F910F91FF9008952B
S11315D0809367036093680308950F931F93CF93D9
S11315E0DF9380E8A8DE80E4A6DECFE6D1E007E65C
S11315F013E061E0899181DEC017D107D1F7DF9153
S1131600CF911F910F910895CF93DF93E4E0F4E01D
S1131610C9E4D4E0ADE6B3E084E494E01192199215
S11316201D92E817F907D1F7DF91CF91089590E063
S1131630FC01EC5FFB4F6083FC01E75BFB4F4083E5
S1131640FC01E359FC4F20830895CF93DF93E4E03A
S1131650F4E0C9E4D4E0ADE6B3E024E434E08193FB
S113166069934D93E217F307D1F7DF91CF91089572
S113167028E030E090E8482F492381F0289A0000C0
S11316800000000000000000000028980000000096
S1131690000000000000000000000AC0289A0000BA
S11316A02898000000000000000000000000000076
S11316B0969521503109F9F6089528980895CF9206
S11316C0DF92EF92FF920F931F93CF93DF93C4E0C7
S11316D0D4E00F2EFDE6EF2EF3E0FF2EF02D09E40B
S11316E014E00F2EF4E4CF2EF4E0DF2EF02D8991D8
S11316F0BFDFF70181917F01BBDFF80181918F0189
S1131700B7DFCC15DD0599F7D8DFDF91CF911F91B5
S11317100F91FF90EF90DF90CF900895991B79E09F
S113172004C0991F961708F0961B881F7A95C9F76D
S113173080950895A1E21A2EAA1BBB1BFD010DC0C2
S1131740AA1FBB1FEE1FFF1FA217B307E407F5076D
S113175020F0A21BB30BE40BF50B661F771F881F49
S1131760991F1A9469F760957095809590959B01DF
S1131770AC01BD01CF010895EE0FFF1F0024001C32
S11317800BBE0790F691E02D09948F929F92AF9231
S1131790BF92CF92DF92EF92FF92CF93DF93EC014F
S11317A0688179818A819B81611571058105910523
S11317B021F464E279ED8BE597E02DE133EF41E02C
S11317C050E038D049015A019B01AC01A7EAB1E4C9
S11317D04DD06B017C01ACEEB4EFA501940152D065
S11317E0DC01CB018C0D9D1DAE1DBF1DB7FF03C0D9
S11317F00197A109B04888839983AA83BB839F7703
S1131800DF91CF91FF90EF90DF90CF90BF90AF909A
S11318109F908F900895B9CF80E091E0B6CFA0E07B
S1131820B0E08093000190930101A0930201B09372
S113183003010895052E97FB16F400940FD057FD6D
S113184005D078DF07FC02D046F408C050954095D7
S1131850309521953F4F4F4F5F4F08959095809558
S1131860709561957F4F8F4F9F4F08950FD0A59F1F
S1131870900DB49F900DA49F800D911D1124089587
S1131880B7FFF4CFF3DF821B930B0895A29FB0013F
S1131890B39FC001A39F700D811D1124911DB29FA0
S11118A0700D811D1124911D0895F894FFCF41
S11318AE01000000010000005374617274002020D6
S11318BE57656C636F6D6520746F00436F6C6C615C
S11318CE707365212121002020486F6C6420646FA1
S11318DE776E202020636C69636B20746F206265C1
S11318EE67696E0073636F72653A20202020202092
S11318FE0047616D65204F7665720046696E616CB6
S10B190E2053636F72653A0077
S9030000FC
