S0160000437573746F6D2050726F6A6563742E737265639C
S113000045C0000060C000005EC000005CC000008D
S11300105AC0000058C0000056C0000054C0000080
S113002052C0000050C000004EC000004CC0000090
S11300304AC00000AEC0000046C0000044C000003A
S113004042C0000040C000003EC000003CC00000B0
S11300503AC0000038C0000036C0000034C00000C0
S113006032C0000030C000002EC000002CC00000D0
S11300702AC0000028C0000026C0000024C00000E0
S113008022C0000020C000001EC0000011241FBEBA
S1130090CFEFD0E4DEBFCDBF11E0A0E0B1E0EEEDE4
S11300A0F5E000E00BBF02C007900D92A830B10745
S11300B0D9F722E0A8E0B1E001C01D92A43AB2074A
S11300C0E1F7C6D08AC29CCFFC010FB6F8946091C8
S11300D0A0027091A1028091A2029091A3020FBE8E
S11300E0309721F0608371838283938308958BE03A
S11300F0809381008DE790E090938900809388003D
S113010082E080936F0010928500109284008091A9
S1130110040190910501A0910601B091070180931B
S1130120080190930901A0930A01B0930B018FB7C2
S113013080688FBF0895CF93DF93EEE4F1E04681AA
S113014057816085718582819381A481B581481727
S113015059076A077B0768F0EF010284F385E02DF5
S1130160888199810995998388831E821F821886C4
S11301701986EEE4F1E086819781A085B185C29667
S1130180A11DB11D86839783A087B187DF91CF918D
S113019008951F920F920FB60F9211240BB60F926F
S11301A02F933F934F935F936F937F938F939F937B
S11301B0AF93BF93EF93FF9380910801909109014E
S11301C0A0910A01B0910B010197A109B109809393
S11301D0080190930901A0930A01B0930B01892BA4
S11301E08A2B8B2B89F4A7DF809104019091050160
S11301F0A0910601B0910701809308019093090131
S1130200A0930A01B0930B01FF91EF91BF91AF91BD
S11302109F918F917F916F915F914F913F912F911A
S11302200F900BBE0F900FBE0F901F901895609308
S11302300401709305018093060190930701609374
S113024008017093090180930A0190930B010895AA
S113025011B88FEF82B984B915B8EEE4F1E01182D8
S1130260108284E690E0A0E0B0E082839383A483CC
S1130270B583168217821086118680E991E09387F0
S1130280828761E070E080E090E0D1DF30DF7CD0F5
S113029080E090E019DF39D1FFCFAEEDB1E02EE977
S11302A032E0FD0181E08083818382833396E2170B
S11302B0F307C9F72AEE31E082E0D6968C93D697FD
S11302C0D7961C92D797D8961C92D8971396A217B4
S11302D0B30799F7ECE5F2E028E632E082E08083A8
S11302E01182128233962E173F07C9F782E080935A
S11302F02C0210922D0210922E028093440210922E
S113030045021092460280933502109236021092F2
S1130310370280934D0210924E0210924F020895BC
S1130320EF92FF920F931F93CF930097A1F01CF0CD
S11303308330910534F08130910569F08230910564
S1130340E9F40FED11E0C0E00F2EFEEDEF2EF1E029
S1130350FF2EF02D04C0A1DF81E090E00FC0F80172
S113036021814081F70163818C2F21D0CF5F0D5F04
S11303701F4FC034A1F750D082E090E0CF911F917D
S11303800F91FF90EF900895CF93DF93EDE5F1E0A7
S1130390CDE9D1E0AEE0B1E08DE991E0119219929E
S11303A01D92E817F907D1F7DF91CF91089590E0F6
S11303B0FC01E35AFE4F6083FC01E356FE4F408389
S11303C0FC01E25FFE4F2083089528E030E090E8CE
S11303D0482F492381F0289A000000000000000003
S11303E00000000028980000000000000000000049
S11303F0000000000AC0289A0000289800000000AD
S11304000000000000000000000096952150310912
S1130410F9F6089528980895CF92DF92EF92FF920B
S11304200F931F93CF93DF93CDE5D1E00F2EFEE022
S1130430EF2EF1E0FF2EF02D0DE911E00F2EFDE976
S1130440CF2EF1E0DF2EF02D8991BFDFF7018191EE
S11304507F01BBDFF80181918F01B7DFCC15DD058A
S113046099F7D8DFDF91CF911F910F91FF90EF9013
S1130470DF90CF9008958F929F92AF92BF92CF92C8
S1130480DF92EF92FF92CF93DF93EC016881798141
S11304908A819B81611571058105910521F464E2CE
S11304A079ED8BE597E02DE133EF41E050E038D072
S11304B049015A019B01AC01A7EAB1E44DD06B019B
S11304C07C01ACEEB4EFA501940152D0DC01CB0168
S11304D08C0D9D1DAE1DBF1DB7FF03C00197A10963
S11304E0B04888839983AA83BB839F77DF91CF9198
S11304F0FF90EF90DF90CF90BF90AF909F908F9040
S11305000895B9CF80E091E0B6CFA0E0B0E0809349
S1130510000190930101A0930201B0930301089597
S1130520052E97FB16F400940FD057FD05D024D068
S113053007FC02D046F408C05095409530952195AB
S11305403F4F4F4F5F4F08959095809570956195FB
S11305507F4F8F4F9F4F089531D0A59F900DB49F2B
S1130560900DA49F800D911D11240895B7FFF4CF21
S1130570F3DF821B930B0895A1E21A2EAA1BBB1B67
S1130580FD010DC0AA1FBB1FEE1FFF1FA217B3075B
S1130590E407F50720F0A21BB30BE40BF50B661F71
S11305A0771F881F991F1A9469F760957095809535
S11305B090959B01AC01BD01CF010895A29FB001AC
S11305C0B39FC001A39F700D811D1124911DB29F83
S11105D0700D811D1124911D0895F894FFCF24
S10B05DE01000000010000000F
S9030000FC
