:100000003DC1000058C1000056C1000054C10000AD
:1000100052C1000050C100004EC100004CC10000A0
:100020004AC1000048C1000046C1000044C10000B0
:1000300042C10000E3C200003EC100003CC100001C
:100040003AC1000038C1000036C1000034C10000D0
:1000500032C1000030C100002EC100002CC10000E0
:100060002AC1000028C1000026C1000024C10000F0
:1000700022C1000020C100001EC100001CC1000000
:100080001AC1000018C1000016C1000089049204C2
:10009000A304AC04BB04C304D204DA0400000000CF
:1000A0000000005F00000007000700147F147F14A9
:1000B000242A7F2A122313086462364955225000ED
:1000C00005030000001C2241000041221C0014080E
:1000D0003E081408083E08080050300000080808D0
:1000E0000808006060000020100804023E514945E5
:1000F0003E00427F400042615149462141454B311B
:100100001814127F1027454545393C4A49493001AA
:10011000710905033649494936064949291E003601
:100120003600000056360000081422410014141452
:100130001414004122140802015109063249794180
:100140003E7E1111117E7F494949363E414141228F
:100150007F4141221C7F494949417F090909013EEC
:100160004149497A7F0808087F00417F41002040CB
:10017000413F017F081422417F404040407F020CF4
:10018000027F7F0408107F3E4141413E7F090909FB
:10019000063E4151215E7F091929464649494931A8
:1001A00001017F01013F4040403F1F2040201F3F91
:1001B0004038403F63140814630708700807615112
:1001C000494543007F41410002040810200041419D
:1001D0007F0004020102044040404040000102044C
:1001E0000020545454787F484444383844444420D0
:1001F000384444487F3854545418087E0901020C8E
:100200005252523E7F0804047800447D4000204052
:10021000443D007F1028440000417F40007C0418CA
:1002200004787C0804047838444444387C1414145A
:1002300008081414187C7C080404084854545420FA
:10024000043F4440203C4040207C1C2040201C3C7B
:100250004030403C44281028440C5050503C4464EA
:10026000544C44000836410000007F000000413635
:1002700008001008081008000000000011241FBE2C
:10028000CFEFD0E4DEBFCDBF11E0A0E0B1E0E8EBFE
:10029000F0E100E00BBF02C007900D92AC31B10756
:1002A000D9F725E0ACE1B1E001C01D92AC3AB2074C
:1002B000E1F749D2FFC6A4CEFC010FB6F8946091D5
:1002C000A8057091A9058091AA059091AB050FBE74
:1002D000309721F060837183828393830895EAE7E6
:1002E000F0E08081806C80830895811106C0ECE786
:1002F000F0E080818E7F808307C0813029F4ECE7B5
:10030000F0E0808181608083EAE7F0E080818064B2
:1003100080838091780090917900089581309105D3
:1003200051F01CF4892BA1F056C08230910541F0A8
:100330000397B1F150C010921D0110921C014EC0E4
:1003400080911C0190911D01089708F447C028C0B6
:100350001092E20481E090E008958217930758F02C
:100360004C91408311964C911197418312964C9178
:100370001297428303C01082118212820196139653
:1003800033968034910549F780911C0190911D01AD
:10039000019690931D0180931C0182E090E00895E6
:1003A000E8EEF4E0AFE1B4E028EA35E080818C9338
:1003B000818111968C931197828112968C9312975A
:1003C00033961396E217F30789F781E08093E204EE
:1003D00083E090E0089580E090E0089580911C0112
:1003E00090911D0122273327281B390B220F331F21
:1003F000220F331F220F331F285C3F4F0196880FB7
:10040000991F880F991F880F991FDC01AA0FBB1F26
:10041000A80FB91FA85DBB4FEFE1F4E080E090E0CA
:100420009CCF029778F480E060DF9093E70480939C
:10043000E60481E05ADF90931D0380931C0381E062
:1004400090E0089580E090E00895CF93DF93EC0171
:100450008130910559F01CF4892B69F114C0823068
:10046000910541F0039709F458C00DC08CE38093C7
:10047000E10432C08091E104882309F44EC0815028
:100480008093E10429C0C130D105A9F01CF4209764
:1004900049F04DC0C230D105F9F0C330D10509F0A3
:1004A00046C03BC0A2D361E081E097D462E088E01F
:1004B00091E081D43CC0E3EEF4E08AE5808380E201
:1004C000818393D361E081E088D462E08EE091E0A3
:1004D00072D4C1E0D0E02BC09091E104E3EEF4E0EF
:1004E0008DEC989F812D112486958695869520E325
:1004F000280F2083880F282F220F220F820F981B8E
:10050000905D918372D361E081E067D462E083EE15
:1005100094E051D4C2E0D0E00AC067D361E081E04A
:100520005CD462E083E191E046D4C3E0D0E05AD4E9
:10053000CE01DF91CF9108958BE0809381008DE70C
:1005400090E0909389008093880082E080936F0010
:100550001092850010928400809104019091050111
:10056000A0910601B091070180931E0190931F0195
:10057000A0932001B09321018FB780688FBF0895A9
:10058000EF92FF920F931F93CF93DF93CEE5D3E0CB
:100590000F2EFAE9EF2EF3E0FF2EF02D8E014E81A3
:1005A0005F81688579858A819B81AC81BD8148178F
:1005B00059076A077B0758F0EA85FB85888199818E
:1005C0000995998388831E821F8218861986F801EF
:1005D00086819781A085B185C296A11DB11D8683B4
:1005E0009783A087B1872C96CE15DF05B9F6DF91EA
:1005F000CF911F910F91FF90EF9008951F920F924E
:100600000FB60F9211240BB60F922F933F934F9377
:100610005F936F937F938F939F93AF93BF93EF936A
:10062000FF9380911E0190911F01A0912001B09134
:1006300021010197A109B10980931E0190931F0127
:10064000A0932001B0932101892B8A2B8B2B89F455
:1006500097DF8091040190910501A0910601B0916E
:10066000070180931E0190931F01A0932001B09376
:100670002101FF91EF91BF91AF919F918F917F9158
:100680006F915F914F913F912F910F900BBE0F9003
:100690000FBE0F901F901895609304017093050191
:1006A000809306019093070160931E0170931F01D0
:1006B0008093200190932101089561307105C9F064
:1006C0001CF4672B41F008956230710501F163302D
:1006D000710559F1089590E0FC01EE0FFF1F8E0F98
:1006E0009F1FFC01E851FB4F108282E08183128240
:1006F000089590E0FC01EE0FFF1F8E0F9F1FFC017D
:10070000E851FB4F1082118282E08283089590E0CD
:10071000FC01EE0FFF1F8E0F9F1FFC01E851FB4FE6
:1007200082E0808311821282089590E0FC01EE0F36
:10073000FF1F8E0F9F1FFC01E851FB4F82E080835B
:1007400081831282089511B88FEF82B984B915B8E8
:1007500087B918B8EEE5F3E01182108282E390E0E9
:10076000A0E0B0E082839383A483B58316821782CE
:100770001086118681E192E0938782871586148620
:1007800088EC90E0A0E0B0E086879787A08BB18BE3
:10079000128A138A148A158A29EE34E0378B268B45
:1007A000118E108E48E95AE360E070E0428F538F5B
:1007B000648F758F168E178E10A211A225E232E07B
:1007C00033A322A315A214A244EC59E060E070E028
:1007D00046A357A360A771A712A613A614A615A631
:1007E0002EE831E037A726A711AA10AA82AB93AB57
:1007F000A4ABB5AB16AA17AA10AE11AE8AE595E068
:1008000093AF82AF6CDD61E070E080E090E044DFA8
:1008100093DEB5D1FED240E062E080E01BD380E001
:1008200090E04ADDDFD3FFCF9A958130924038F4D3
:100830007A9581E06130724018F480E0089581E09B
:100840000895613023E0720778F0813043E0940727
:10085000C0F59C01215031402F3F3140A8F18F3F1E
:10086000910509F0E8F433C0813023E0920708F4E1
:1008700043C0611543E0740760F4613081E078079C
:1008800048F507C09B01215031402F3F314028F1EE
:1008900007C06F3F710521F118F188E090E00895DD
:1008A0006F3F710509F0F8F49C01215031402F3F52
:1008B0003140E0F08F3F9105E1F0D8F088E090E022
:1008C000089587E090E0089580E090E0089581E049
:1008D00090E0089586E090E0089582E090E0089529
:1008E00085E090E0089588E090E0089584E090E04D
:1008F000089583E090E008958F3F910519F210F27A
:10090000CFCF8830910508F063C0FC01EA5BFF4F50
:1009100016C38091E004882309F45AC08150809363
:10092000E00408958091E004882309F451C0909177
:10093000DF04973008F04CC0EFEDF4E09F5F908348
:100940008150818308958091DF04873008F040C092
:100950008F5F8093DF0408958091DF048730C0F5B6
:100960009091E0049730A0F5EFEDF4E08F5F808385
:100970009F5F918308958091E004873048F58F5FF1
:100980008093E00408958091E004873008F5909109
:10099000DF049923E9F0EFEDF4E08F5F818391505C
:1009A000908308958091DF04882391F08150809393
:1009B000DF0408958091DF04882351F09091E004D2
:1009C000992331F0EFEDF4E08150808391509183D1
:1009D0000895EF92FF920F931F93CF93DF93EC0153
:1009E0008230910579F02CF4009779F10197A1F10B
:1009F00036C08330910519F00497D9F030C0C4E0B7
:100A0000D0E032C0E0901C03F0901D030091E6049A
:100A10001091E704B701C80107DF882329F1B70166
:100A2000C8010FDF80931E0499276BDFC3E0D0E07D
:100A30001BC060911C0370911D038091E60490918E
:100A4000E704F2DE882371F00FC0EFEDF4E01082CE
:100A50001182C1E0D0E008C0C2E0D0E005C0C0E033
:100A6000D0E002C0C2E0D0E0CE01DF91CF911F9173
:100A70000F91FF90EF900895CF93C0E0B0D2BC01EA
:100A800063707078772334F4615071096C6F7F6FF5
:100A90006F5F7F4F8C2F11DECF5FC03479F7CF911E
:100AA0000895EFEDF4E08181880F880F880F908121
:100AB000890F08950F931F93CF93009771F01CF047
:100AC0008330910534F08130910539F08230910501
:100AD00089F50FE114E0C0E004C0CEDF81E090E0D2
:100AE00029C0DFDF8C1731F0F8012181428160815C
:100AF0008C2FA2D1CF5F0D5F1F4FC03491F7809133
:100B0000E204882331F0CDDF25E045E065E094D1B3
:100B10000EC0C7DF282F30E0F901EE0FFF1FE20FF4
:100B2000F31FE15EFB4F21814281608185D1CCD1F1
:100B300082E090E0CF911F910F9108954098662335
:100B400011F0429A15C0429813C0AC01022E02C0A7
:100B5000559547950A94E2F740FF02C0439A01C0B9
:100B60004398449A44982150310978F7409A08955F
:100B700027E030E090E0E9CF60E0E0CF0895CF9348
:100B8000DF93389A399A3A9A3B9A3C9A419A409A1A
:100B900083EC99E00197F1F700C0000041988BE5E4
:100BA00094E40197F1F700C00000419A409881E277
:100BB000E3DF83E1E1DF86E0DFDF82ECDDDF80E29F
:100BC000DBDF89E0D9DF80E8D7DF88E4D5DFC8EF55
:100BD000D1E061E080E0B2DF2197D9F788E0CCDF97
:100BE0008CE0CADFDF91CF91089580E8C5DF80E413
:100BF000C3DF10921A0310921B03E2E2F1E08AE1D4
:100C000093E01192E817F907E1F70895262F26954A
:100C10002695269590E034E5239F800D911D1124A3
:100C2000442379F0FC01EE5DFE4F677081E090E0B7
:100C300002C0880F991F6A95E2F79081892B808303
:100C40000895FC01EE5DFE4F677081E090E002C008
:100C5000880F991F6A95E2F7809590818923808398
:100C600008955F926F927F928F929F92AF92BF9200
:100C7000CF92DF92EF92FF920F931F93CF93DF9368
:100C8000562E262F30E04901880C991C880C991C9F
:100C9000820E931E181419040CF059C08901000F1C
:100CA000111F000F111F000F111F021B130B612CCE
:100CB000A82EB12CC50180975C01AA0CBB1CAA0C04
:100CC000BB1CA80EB91E0F2EFBE1CF2EF3E0DF2ECA
:100CD000F02D0F2EFAE1EF2EF3E0FF2EF02D2AC0BB
:100CE000FE01249130E0872D652D1DD102C0359580
:100CF00027958A95E2F720FF09C0F6016081670D0C
:100D0000F701808141E0860D81DF08C0F601608136
:100D1000670DF701808140E0860D78DF7394872DA1
:100D200090E080179107E4F26394862D90E0881597
:100D300099056CF410161106BCF7862D652DF3D0BD
:100D4000E501C80FD11DC456DF4F712CC9CF80916A
:100D50001A0391E0980F852D880F880F850D890F54
:100D6000843518F480931A030EC010921A03EBE135
:100D7000F3E0808191E0980F852D880F880F880F10
:100D80008519890F808380911B03803320F0109296
:100D90001A0310921B03DF91CF911F910F91FF90C7
:100DA000EF90DF90CF90BF90AF909F908F907F900B
:100DB0006F905F9008951F93CF93DF93EC0188812C
:100DC000882339F0162F2196612F4BDF89918111ED
:100DD000FBCFDF91CF911F91089580931A03609309
:100DE0001B0308950F931F93CF93DF9380E8C4DE16
:100DF00080E4C2DEC2E2D1E00AE113E061E0899161
:100E00009DDEC017D107D1F7DF91CF911F910F91D0
:100E10000895CF93DF93EDE9F3E0CEEDD3E0AEE1BB
:100E2000B3E08DED93E0119219921D92E817F90746
:100E3000D1F7DF91CF91089590E0FC01E356FC4F8C
:100E40006083FC01E252FC4F4083FC01E25EFC4FF8
:100E500020830895CF93DF93EDE9F3E0CEEDD3E067
:100E6000AEE1B3E02DED33E0819369934D93E2174A
:100E7000F307D1F7DF91CF91089528E030E090E8B3
:100E8000482F492381F0289A00000000000000004C
:100E90000000000028980000000000000000000092
:100EA000000000000AC0289A0000289800000000F6
:100EB000000000000000000000009695215031095C
:100EC000F9F6089528980895CF92DF92EF92FF9255
:100ED0000F931F93CF93DF93CDE9D3E00F2EFEE165
:100EE000EF2EF3E0FF2EF02D0EED13E00F2EFDEDB3
:100EF000CF2EF3E0DF2EF02D8991BFDFF701819136
:100F00007F01BBDFF80181918F01B7DFCC15DD05D3
:100F100099F7D8DFDF91CF911F910F91FF90EF905C
:100F2000DF90CF900895991B79E004C0991F961720
:100F300008F0961B881F7A95C9F780950895EE0FE3
:100F4000FF1F0024001C0BBE0790F691E02D0994B2
:100F50008F929F92AF92BF92CF92DF92EF92FF92C9
:100F6000CF93DF93EC01688179818A819B81611540
:100F700071058105910521F464E279ED8BE597E037
:100F80002DE133EF41E050E038D049015A019B0197
:100F9000AC01A7EAB1E44DD06B017C01ACEEB4EF3B
:100FA000A501940152D0DC01CB018C0D9D1DAE1D1D
:100FB000BF1DB7FF03C00197A109B048888399837B
:100FC000AA83BB839F77DF91CF91FF90EF90DF9053
:100FD000CF90BF90AF909F908F900895B9CF80E051
:100FE00091E0B6CFA0E0B0E08093000190930101C2
:100FF000A0930201B09303010895052E97FB16F408
:1010000000940FD057FD05D024D007FC02D046F441
:1010100008C050954095309521953F4F4F4F5F4FF9
:10102000089590958095709561957F4F8F4F9F4F54
:10103000089531D0A59F900DB49F900DA49F800D71
:10104000911D11240895B7FFF4CFF3DF821B930B9A
:101050000895A1E21A2EAA1BBB1BFD010DC0AA1FF9
:10106000BB1FEE1FFF1FA217B307E407F50720F011
:10107000A21BB30BE40BF50B661F771F881F991F8C
:101080001A9469F760957095809590959B01AC01D5
:10109000BD01CF010895A29FB001B39FC001A39FDE
:1010A000700D811D1124911DB29F700D811D1124A1
:0810B000911D0895F894FFCF93
:1010B8000100000001000000537461727400496E61
:0C10C80069740046696E697368210000BD
:00000001FF
